{
  "address": "0x454568f7Fd9bcbD456958C52Fa54A7b8F0384Cf4",
  "abi": [
    {
      "inputs": [],
      "stateMutability": "nonpayable",
      "type": "constructor"
    },
    {
      "inputs": [],
      "name": "NotAdmin",
      "type": "error"
    },
    {
      "inputs": [],
      "name": "NotOrderMaker",
      "type": "error"
    },
    {
      "inputs": [],
      "name": "OrderExpired",
      "type": "error"
    },
    {
      "inputs": [],
      "name": "OrderNotOpen",
      "type": "error"
    },
    {
      "inputs": [],
      "name": "PairNotSupported",
      "type": "error"
    },
    {
      "inputs": [
        {
          "internalType": "bytes32",
          "name": "handle",
          "type": "bytes32"
        },
        {
          "internalType": "address",
          "name": "sender",
          "type": "address"
        }
      ],
      "name": "SenderNotAllowedToUseHandle",
      "type": "error"
    },
    {
      "inputs": [],
      "name": "TokenPairMismatch",
      "type": "error"
    },
    {
      "inputs": [],
      "name": "TransferFailed",
      "type": "error"
    },
    {
      "inputs": [],
      "name": "ZamaProtocolUnsupported",
      "type": "error"
    },
    {
      "inputs": [],
      "name": "ZeroAmount",
      "type": "error"
    },
    {
      "anonymous": false,
      "inputs": [
        {
          "indexed": true,
          "internalType": "address",
          "name": "user",
          "type": "address"
        },
        {
          "indexed": true,
          "internalType": "address",
          "name": "token",
          "type": "address"
        }
      ],
      "name": "DailyLimitSet",
      "type": "event"
    },
    {
      "anonymous": false,
      "inputs": [
        {
          "indexed": true,
          "internalType": "address",
          "name": "user",
          "type": "address"
        },
        {
          "indexed": true,
          "internalType": "address",
          "name": "token",
          "type": "address"
        },
        {
          "indexed": false,
          "internalType": "uint64",
          "name": "amount",
          "type": "uint64"
        }
      ],
      "name": "Deposited",
      "type": "event"
    },
    {
      "anonymous": false,
      "inputs": [
        {
          "indexed": true,
          "internalType": "uint256",
          "name": "orderId",
          "type": "uint256"
        }
      ],
      "name": "OrderCancelled",
      "type": "event"
    },
    {
      "anonymous": false,
      "inputs": [
        {
          "indexed": true,
          "internalType": "uint256",
          "name": "orderId",
          "type": "uint256"
        },
        {
          "indexed": true,
          "internalType": "address",
          "name": "maker",
          "type": "address"
        },
        {
          "indexed": false,
          "internalType": "address",
          "name": "tokenIn",
          "type": "address"
        },
        {
          "indexed": false,
          "internalType": "address",
          "name": "tokenOut",
          "type": "address"
        },
        {
          "indexed": false,
          "internalType": "uint256",
          "name": "expiresAt",
          "type": "uint256"
        }
      ],
      "name": "OrderCreated",
      "type": "event"
    },
    {
      "anonymous": false,
      "inputs": [
        {
          "indexed": true,
          "internalType": "uint256",
          "name": "settlementId",
          "type": "uint256"
        },
        {
          "indexed": true,
          "internalType": "uint256",
          "name": "orderIdA",
          "type": "uint256"
        },
        {
          "indexed": true,
          "internalType": "uint256",
          "name": "orderIdB",
          "type": "uint256"
        },
        {
          "indexed": false,
          "internalType": "uint256",
          "name": "settledAt",
          "type": "uint256"
        }
      ],
      "name": "OrdersMatched",
      "type": "event"
    },
    {
      "anonymous": false,
      "inputs": [
        {
          "indexed": true,
          "internalType": "address",
          "name": "tokenA",
          "type": "address"
        },
        {
          "indexed": true,
          "internalType": "address",
          "name": "tokenB",
          "type": "address"
        },
        {
          "indexed": false,
          "internalType": "bool",
          "name": "supported",
          "type": "bool"
        }
      ],
      "name": "PairUpdated",
      "type": "event"
    },
    {
      "anonymous": false,
      "inputs": [
        {
          "indexed": true,
          "internalType": "address",
          "name": "user",
          "type": "address"
        },
        {
          "indexed": true,
          "internalType": "address",
          "name": "token",
          "type": "address"
        },
        {
          "indexed": false,
          "internalType": "uint64",
          "name": "amount",
          "type": "uint64"
        }
      ],
      "name": "Withdrawn",
      "type": "event"
    },
    {
      "inputs": [],
      "name": "RATE_SCALE",
      "outputs": [
        {
          "internalType": "uint64",
          "name": "",
          "type": "uint64"
        }
      ],
      "stateMutability": "view",
      "type": "function"
    },
    {
      "inputs": [],
      "name": "admin",
      "outputs": [
        {
          "internalType": "address",
          "name": "",
          "type": "address"
        }
      ],
      "stateMutability": "view",
      "type": "function"
    },
    {
      "inputs": [
        {
          "internalType": "uint256",
          "name": "orderId",
          "type": "uint256"
        }
      ],
      "name": "cancelOrder",
      "outputs": [],
      "stateMutability": "nonpayable",
      "type": "function"
    },
    {
      "inputs": [],
      "name": "confidentialProtocolId",
      "outputs": [
        {
          "internalType": "uint256",
          "name": "",
          "type": "uint256"
        }
      ],
      "stateMutability": "view",
      "type": "function"
    },
    {
      "inputs": [
        {
          "internalType": "address",
          "name": "tokenIn",
          "type": "address"
        },
        {
          "internalType": "address",
          "name": "tokenOut",
          "type": "address"
        },
        {
          "internalType": "externalEuint64",
          "name": "encryptedAmount",
          "type": "bytes32"
        },
        {
          "internalType": "externalEuint64",
          "name": "encryptedRate",
          "type": "bytes32"
        },
        {
          "internalType": "bytes",
          "name": "inputProof",
          "type": "bytes"
        },
        {
          "internalType": "uint256",
          "name": "duration",
          "type": "uint256"
        }
      ],
      "name": "createOrder",
      "outputs": [
        {
          "internalType": "uint256",
          "name": "orderId",
          "type": "uint256"
        }
      ],
      "stateMutability": "nonpayable",
      "type": "function"
    },
    {
      "inputs": [
        {
          "internalType": "address",
          "name": "token",
          "type": "address"
        },
        {
          "internalType": "uint64",
          "name": "amount",
          "type": "uint64"
        }
      ],
      "name": "deposit",
      "outputs": [],
      "stateMutability": "nonpayable",
      "type": "function"
    },
    {
      "inputs": [
        {
          "internalType": "address",
          "name": "token",
          "type": "address"
        }
      ],
      "name": "escrowBalance",
      "outputs": [
        {
          "internalType": "euint64",
          "name": "",
          "type": "bytes32"
        }
      ],
      "stateMutability": "view",
      "type": "function"
    },
    {
      "inputs": [
        {
          "internalType": "address",
          "name": "token",
          "type": "address"
        }
      ],
      "name": "getDailyLimit",
      "outputs": [
        {
          "internalType": "euint64",
          "name": "",
          "type": "bytes32"
        }
      ],
      "stateMutability": "view",
      "type": "function"
    },
    {
      "inputs": [
        {
          "internalType": "address",
          "name": "token",
          "type": "address"
        }
      ],
      "name": "getDailySpent",
      "outputs": [
        {
          "internalType": "euint64",
          "name": "",
          "type": "bytes32"
        }
      ],
      "stateMutability": "view",
      "type": "function"
    },
    {
      "inputs": [
        {
          "internalType": "uint256",
          "name": "orderId",
          "type": "uint256"
        }
      ],
      "name": "getOrder",
      "outputs": [
        {
          "internalType": "address",
          "name": "maker",
          "type": "address"
        },
        {
          "internalType": "address",
          "name": "tokenIn",
          "type": "address"
        },
        {
          "internalType": "address",
          "name": "tokenOut",
          "type": "address"
        },
        {
          "internalType": "uint256",
          "name": "createdAt",
          "type": "uint256"
        },
        {
          "internalType": "uint256",
          "name": "expiresAt",
          "type": "uint256"
        },
        {
          "internalType": "enum SealedFX.OrderStatus",
          "name": "status",
          "type": "uint8"
        }
      ],
      "stateMutability": "view",
      "type": "function"
    },
    {
      "inputs": [
        {
          "internalType": "uint256",
          "name": "orderId",
          "type": "uint256"
        }
      ],
      "name": "getOrderAmount",
      "outputs": [
        {
          "internalType": "euint64",
          "name": "",
          "type": "bytes32"
        }
      ],
      "stateMutability": "view",
      "type": "function"
    },
    {
      "inputs": [
        {
          "internalType": "uint256",
          "name": "orderId",
          "type": "uint256"
        }
      ],
      "name": "getOrderRate",
      "outputs": [
        {
          "internalType": "euint64",
          "name": "",
          "type": "bytes32"
        }
      ],
      "stateMutability": "view",
      "type": "function"
    },
    {
      "inputs": [
        {
          "internalType": "uint256",
          "name": "settlementId",
          "type": "uint256"
        }
      ],
      "name": "getSettlement",
      "outputs": [
        {
          "internalType": "uint256",
          "name": "buyOrderId",
          "type": "uint256"
        },
        {
          "internalType": "uint256",
          "name": "sellOrderId",
          "type": "uint256"
        },
        {
          "internalType": "uint256",
          "name": "settledAt",
          "type": "uint256"
        }
      ],
      "stateMutability": "view",
      "type": "function"
    },
    {
      "inputs": [
        {
          "internalType": "uint256",
          "name": "settlementId",
          "type": "uint256"
        }
      ],
      "name": "getSettlementAmounts",
      "outputs": [
        {
          "internalType": "euint64",
          "name": "amountIn",
          "type": "bytes32"
        },
        {
          "internalType": "euint64",
          "name": "amountOut",
          "type": "bytes32"
        }
      ],
      "stateMutability": "view",
      "type": "function"
    },
    {
      "inputs": [
        {
          "internalType": "address",
          "name": "user",
          "type": "address"
        }
      ],
      "name": "getUserOrders",
      "outputs": [
        {
          "internalType": "uint256[]",
          "name": "",
          "type": "uint256[]"
        }
      ],
      "stateMutability": "view",
      "type": "function"
    },
    {
      "inputs": [
        {
          "internalType": "address",
          "name": "user",
          "type": "address"
        }
      ],
      "name": "getUserSettlements",
      "outputs": [
        {
          "internalType": "uint256[]",
          "name": "",
          "type": "uint256[]"
        }
      ],
      "stateMutability": "view",
      "type": "function"
    },
    {
      "inputs": [
        {
          "internalType": "uint256",
          "name": "orderIdA",
          "type": "uint256"
        },
        {
          "internalType": "uint256",
          "name": "orderIdB",
          "type": "uint256"
        }
      ],
      "name": "matchOrders",
      "outputs": [
        {
          "internalType": "uint256",
          "name": "settlementId",
          "type": "uint256"
        }
      ],
      "stateMutability": "nonpayable",
      "type": "function"
    },
    {
      "inputs": [],
      "name": "nextOrderId",
      "outputs": [
        {
          "internalType": "uint256",
          "name": "",
          "type": "uint256"
        }
      ],
      "stateMutability": "view",
      "type": "function"
    },
    {
      "inputs": [],
      "name": "nextSettlementId",
      "outputs": [
        {
          "internalType": "uint256",
          "name": "",
          "type": "uint256"
        }
      ],
      "stateMutability": "view",
      "type": "function"
    },
    {
      "inputs": [
        {
          "internalType": "address",
          "name": "token",
          "type": "address"
        },
        {
          "internalType": "externalEuint64",
          "name": "encryptedLimit",
          "type": "bytes32"
        },
        {
          "internalType": "bytes",
          "name": "inputProof",
          "type": "bytes"
        }
      ],
      "name": "setDailyLimit",
      "outputs": [],
      "stateMutability": "nonpayable",
      "type": "function"
    },
    {
      "inputs": [
        {
          "internalType": "address",
          "name": "tokenA",
          "type": "address"
        },
        {
          "internalType": "address",
          "name": "tokenB",
          "type": "address"
        },
        {
          "internalType": "bool",
          "name": "supported",
          "type": "bool"
        }
      ],
      "name": "setSupportedPair",
      "outputs": [],
      "stateMutability": "nonpayable",
      "type": "function"
    },
    {
      "inputs": [
        {
          "internalType": "address",
          "name": "",
          "type": "address"
        },
        {
          "internalType": "address",
          "name": "",
          "type": "address"
        }
      ],
      "name": "supportedPairs",
      "outputs": [
        {
          "internalType": "bool",
          "name": "",
          "type": "bool"
        }
      ],
      "stateMutability": "view",
      "type": "function"
    },
    {
      "inputs": [
        {
          "internalType": "address",
          "name": "token",
          "type": "address"
        },
        {
          "internalType": "uint64",
          "name": "amount",
          "type": "uint64"
        }
      ],
      "name": "withdraw",
      "outputs": [],
      "stateMutability": "nonpayable",
      "type": "function"
    }
  ],
  "transactionHash": "0x0d2c3d18a289c2552785a2cea27c45a1fdbfd6324859b31d40bb7fc41f4ec495",
  "args": [],
  "numDeployments": 1,
  "solcInputHash": "32c12c85c06742fc1271f6640e3b1593",
  "bytecode": "0x60806040523461021957610011610250565b504660010361013557610022610250565b5061002b61021d565b73ca2e8f1f656cd25c01f05d0b243ab1ecd4a8ffb6815273d82385dada1ae3e969447f20a3164f6213100e7560208201527377627828a55156b04ac0dc0eb30467f1a552bb0360408201525b80517f9e7b61f58c47dc699ac88507c4f5bb9f121c03808c5676a8078fe583e464970080546001600160a01b03199081166001600160a01b039384161790915560208301517f9e7b61f58c47dc699ac88507c4f5bb9f121c03808c5676a8078fe583e4649701805483169184169190911790556040928301517f9e7b61f58c47dc699ac88507c4f5bb9f121c03808c5676a8078fe583e4649702805483169190931617909155600280549091163317905551611fa0908161026b8239f35b4662aa36a7036101a057610147610250565b5061015061021d565b73f0ffdc93b7e186bc2f8cb3daa75d86d1930a433d81527392c920834ec8941d2c77d188936e1f7a6f49c127602082015273be0e383937d564d7ff0bc3b46c51f0bf8d5c311a6040820152610077565b46617a690361020a576101b1610250565b506101ba61021d565b7350157cffd6bbfa2dece204a89ec419c23ef5755d815273e3a9105a3a932253a70f126eb1e3b589c643dd24602082015273901f8942346f7ab3a01f6d7613119bca447bb0306040820152610077565b6373cac13b60e01b5f5260045ffd5b5f80fd5b60405190606082016001600160401b0381118382101761023c57604052565b634e487b7160e01b5f52604160045260245ffd5b61025861021d565b905f82525f60208301525f604083015256fe60806040526004361015610011575f80fd5b5f3560e01c80630d48a6b514611476578063134def72146114495780631756353d14610dad5780632615ce5814610cce57806329664ac614610b465780632a58b33014610b2a5780633eab94e1146107f9578063461100bb146107a05780634c5823801461075f578063514fcac7146105b557806355af63531461057257806358f2ef171461052f5780635b8c9337146104ec57806363c69f081461047a57806367bb1fcf1461044d57806379e071af146104305780638927b0301461040e5780638ef910b9146103d8578063a16c2cfb146103bb578063bfcb704014610339578063d09ef2411461029d578063d6dad060146101405763f851a44014610116575f80fd5b3461013c575f36600319011261013c5760206001600160a01b0360025416604051908152f35b5f80fd5b3461013c5767ffffffffffffffff61015736611576565b9190911690811561028e576001600160a01b03906101ab61017784611f24565b335f52600760205260405f208484165f5260205260405f2054906101a561019e8383611c3d565b9183611b33565b906118fa565b335f908152600760209081526040808320868616845290915290208190556101d2906118b4565b50335f52600760205260405f208282165f526020526101f660405f203390546118d3565b50169060405163a9059cbb60e01b81523360048201528160248201526020816044815f875af1801561028357610256575b506040519081527fbaac24e87e58c882661315cdf88028ec18a57cc2e8d3a8e5e02de1cfa9f167e360203392a3005b6102779060203d60201161027c575b61026f81836115e6565b8101906116b0565b610227565b503d610265565b6040513d5f823e3d90fd5b631f2a200560e01b5f5260045ffd5b3461013c57602036600319011261013c576004355f52600360205260405f206001600160a01b038154166001600160a01b03600183015416916001600160a01b0360028201541660058201549060ff600760068501549401541694604051948552602085015260408401526060830152608082015260048210156103255760c09160a0820152f35b634e487b7160e01b5f52602160045260245ffd5b3461013c57602036600319011261013c576001600160a01b0361035a61151c565b165f52600660205260405f206040519081602082549182815201915f5260205f20905f5b8181106103a5576103a185610395818703826115e6565b604051918291826115ad565b0390f35b825484526020909301926001928301920161037e565b3461013c575f36600319011261013c576020600154604051908152f35b3461013c57602036600319011261013c576004355f5260046020526040805f206003600282015491015482519182526020820152f35b3461013c575f36600319011261013c576020610428611e2a565b604051908152f35b3461013c575f36600319011261013c576020604051620f42408152f35b3461013c57602036600319011261013c576004355f5260036020526020600360405f200154604051908152f35b3461013c57602036600319011261013c576001600160a01b0361049b61151c565b165f52600560205260405f206040519081602082549182815201915f5260205f20905f5b8181106104d6576103a185610395818703826115e6565b82548452602090930192600192830192016104bf565b3461013c57602036600319011261013c5761050561151c565b335f5260096020526001600160a01b0360405f2091165f52602052602060405f2054604051908152f35b3461013c57602036600319011261013c5761054861151c565b335f5260086020526001600160a01b0360405f2091165f52602052602060405f2054604051908152f35b3461013c57602036600319011261013c5761058b61151c565b335f5260076020526001600160a01b0360405f2091165f52602052602060405f2054604051908152f35b3461013c57602036600319011261013c57600435805f52600360205260405f206007810160ff815416600481101561032557610750576001600160a01b03825416330361074157600260ff19825416179055335f52600760205260405f2060018201916001600160a01b03835416916001600160a01b0383165f5260205260405f205415155f14610717576106739150335f52600760205260405f206001600160a01b0380855416165f52602052600360405f205491015490611bb8565b335f52600760205260405f206001600160a01b0380845416165f5260205260405f20555b335f52600760205260405f206001600160a01b0380835416165f526020526106c260405f20546118b4565b50335f5260076020526001600160a01b038060405f20925416165f526020526106f060405f203390546118d3565b507f61b9399f2f0f32ca39ce8d7be32caed5ec22fe07a6daba3a467ed479ec6065825f80a2005b6003015490335f5260076020526001600160a01b0360405f2091165f5260205260405f2055610697565b6380f806d960e01b5f5260045ffd5b63206931ef60e01b5f5260045ffd5b3461013c57602036600319011261013c576004355f526004602052606060405f20805490600460018201549101549060405192835260208301526040820152f35b3461013c57604036600319011261013c576107b961151c565b6001600160a01b036107c9611532565b91165f52600b6020526001600160a01b0360405f2091165f52602052602060ff60405f2054166040519015158152f35b3461013c5760c036600319011261013c5761081261151c565b61081a611532565b9060843567ffffffffffffffff811161013c5761083b903690600401611548565b91909260a4356001600160a01b03831694855f52600b60205260405f206001600160a01b0384165f5260205260ff60405f20541615610b1b576108996108a191610891610889368984611608565b6044356116d5565b963691611608565b6064356116d5565b91335f52600760205260405f20865f526020526108d060405f20546108c68188611c3d565b6101a58883611b33565b335f9081526007602090815260408083208a845290915290208190556108f5906118b4565b50335f52600760205260405f20865f5260205261091760405f203390546118d3565b50610923858533611cc2565b5f549461092f8661164e565b5f5561093b83426116c8565b60405190610100820182811067ffffffffffffffff821117610b075760405233825260208201988952604082016001600160a01b038516815260608301848152608084019088825260a085019242845260c0860194855260e086019c5f8e528c5f52600360205260405f2096516001600160a01b03166001600160a01b0316875473ffffffffffffffffffffffffffffffffffffffff1916178755516001600160a01b031660018701906001600160a01b0316815473ffffffffffffffffffffffffffffffffffffffff1916179055516001600160a01b031660028601906001600160a01b0316815473ffffffffffffffffffffffffffffffffffffffff1916179055516003850155516004840155516005830155516006820155600701965192600484101561032557610abd8795610ab3610ad89460209b7fdcb4282d27c4f0f72b550268698af955cf8c6bd36efec7b9a243e500452f86e29860ff80198354169116179055610aab816118b4565b5033906118d3565b50610aab816118b4565b50335f5260058852610ad28560405f20611670565b426116c8565b604080516001600160a01b039687168152929095166020830152938101939093523392606090a3604051908152f35b634e487b7160e01b5f52604160045260245ffd5b6365db466f60e01b5f5260045ffd5b3461013c575f36600319011261013c5760205f54604051908152f35b3461013c5767ffffffffffffffff610b5d36611576565b9190911690811561028e576040516323b872dd60e01b8152336004820152306024820152604481018390526001600160a01b039190911691906020816064815f875af1908115610283575f91610caf575b5015610ca057610bbd81611f24565b335f52600760205260405f20835f5260205260405f205415155f14610c8457610bfc90335f52600760205260405f20845f5260205260405f2054611bb8565b335f52600760205260405f20835f5260205260405f20555b335f52600760205260405f20825f52602052610c3360405f20546118b4565b50335f52600760205260405f20825f52602052610c5560405f203390546118d3565b506040519081527f56b78ff574d1f4febd28fdc15b6490c8384ccc7aab92c4a48d47ff45e01e5d6460203392a3005b335f52600760205260405f20835f5260205260405f2055610c14565b6312171d8360e31b5f5260045ffd5b610cc8915060203d60201161027c5761026f81836115e6565b83610bae565b3461013c57606036600319011261013c57610ce761151c565b610cef611532565b604435918215159081840361013c576001600160a01b03600254163303610d9e577fa0be238839c65552a544da5e66b7a224fe553eccb19681bc2ddd043f4ec863ce91610d956001600160a01b03806020941695865f52600b855260405f208282165f528552610d6e8860405f209060ff801983541691151516179055565b1695865f52600b845260405f20865f52845260405f209060ff801983541691151516179055565b604051908152a3005b637bfa4b9f60e01b5f5260045ffd5b3461013c57604036600319011261013c57600435602435815f52600360205260405f2090805f52600360205260405f2092600783019260ff84541660048110156103255761075057600785019460ff865416600481101561032557610750576006820154421161143a576006810154421161143a5760018201946001600160a01b038654166001600160a01b0360028401541614801590611416575b61140757600483015495600483015487156113f7575b80156113e5575b60209060646001600160a01b035f516020611f745f395f51905f525416995f6040519b8c948593630afe14ad60e31b8552600485015260248401528160448401525af1968715610283575f976113b1575b505f516020611f745f395f51905f5254604051639cd07acb60e01b8152620f42406004820152906001600160a01b0316816044815f602094600560248401525af1908115610283575f9161137f575b5080881561136f575b1561135d575b60209060646001600160a01b035f516020611f745f395f51905f525416995f6040519b8c948593631391547f60e01b8552600485015260248401528160448401525af1968715610283575f97611329575b506003840190815497600385019283548a15611319575b8015611307575b60209060646001600160a01b035f516020611f745f395f51905f5254169c5f6040519e8f9485936304559f7160e01b8552600485015260248401528160448401525af1998a15610283575f9a6112cf575b5090610ff191610ff88b610fe7611ed6565b94858092866118fa565b9c846118fa565b9b8c9661101b8d6001600160a01b038b54166001600160a01b0389541690611a3c565b6110406001600160a01b038b54169860018b01996001600160a01b038b541690611a3c565b600160ff19825416179055600160ff198254161790558054855481156112bf575b80156112ad575b60209060646001600160a01b035f516020611f745f395f51905f525416935f60405195869485936385362ee760e01b8552600485015260248401528160448401525af1908115610283575f91611279575b50836110f06110f9926110dc611101976110d687548c5490611b33565b836118fa565b926110ea8a54875490611b33565b916118fa565b925490846118fa565b9454916118fa565b9180611259575b505080611239575b50506001549461111f8661164e565b6001556040519260a084019380851067ffffffffffffffff861117610b07576020986111d66001600160a01b0396946111dc93889660405289815260048c8e83018d815260408401858152606085019188835260808601934285525f52602085905260405f2095518655516001860155516002850155516003840155519101556111ac86865416826118d3565b506111ba86885416826118d3565b506111c886865416846118d3565b506111d686885416846118d3565b506118b4565b5054165f52600686526111f28560405f20611670565b54165f52600684526112078360405f20611670565b827faa00869ecc7a2675aeae91fe142fd1e0c7a67e5ada2b1618f934701dd2e2d6ab85604051428152a4604051908152f35b611252916001600160a01b038085541691541690611a3c565b8680611110565b611272916001600160a01b038088541691541690611a3c565b8880611108565b90506020813d6020116112a5575b81611294602093836115e6565b8101031261013c57516111016110b9565b3d9150611287565b5060206112b8611ed6565b9050611068565b90506112c9611ed6565b90611061565b919099506020823d6020116112ff575b816112ec602093836115e6565b8101031261013c57905198610ff1610fd5565b3d91506112df565b506020611312611ed6565b9050610f84565b9950611323611ed6565b99610f7d565b9096506020813d602011611355575b81611345602093836115e6565b8101031261013c57519588610f66565b3d9150611338565b506020611368611ed6565b9050610f15565b9750611379611ed6565b97610f0f565b90506020813d6020116113a9575b8161139a602093836115e6565b8101031261013c575189610f06565b3d915061138d565b9096506020813d6020116113dd575b816113cd602093836115e6565b8101031261013c57519588610eb7565b3d91506113c0565b5060206113f0611ed6565b9050610e66565b9650611401611ed6565b96610e5f565b63702ebe4d60e11b5f5260045ffd5b506001600160a01b036002840154166001600160a01b036001840154161415610e49565b6362b439dd60e11b5f5260045ffd5b3461013c57602036600319011261013c576004355f5260036020526020600460405f200154604051908152f35b3461013c57606036600319011261013c5761148f61151c565b6044359067ffffffffffffffff821161013c576114f36114d06114c86114c16001600160a01b03953690600401611548565b3691611608565b6024356116d5565b335f52600860205260405f208484165f526020528060405f2055610aab816118b4565b5016337f2d497a7355d65bbfef0a5eb03ecbf182c9c1bcff5f8f6928c0f5ab49b56beb785f80a3005b600435906001600160a01b038216820361013c57565b602435906001600160a01b038216820361013c57565b9181601f8401121561013c5782359167ffffffffffffffff831161013c576020838186019501011161013c57565b604090600319011261013c576004356001600160a01b038116810361013c579060243567ffffffffffffffff8116810361013c5790565b60206040818301928281528451809452019201905f5b8181106115d05750505090565b82518452602093840193909201916001016115c3565b90601f8019910116810190811067ffffffffffffffff821117610b0757604052565b92919267ffffffffffffffff8211610b075760405191611632601f8201601f1916602001846115e6565b82948184528183011161013c578281602093845f960137010152565b5f19811461165c5760010190565b634e487b7160e01b5f52601160045260245ffd5b80549068010000000000000000821015610b07576001820180825582101561169c575f5260205f200155565b634e487b7160e01b5f52603260045260245ffd5b9081602091031261013c5751801515810361013c5790565b9190820180921161165c57565b8151156118055760209182916001600160a01b035f516020611f745f395f51905f525416905f60a460405180978196829563045fc19560e11b84526004840152336024840152608060448401528051918291826084860152018484015e818101830184905260056064830152601f01601f191681010301925af1908115610283575f916117d3575b506001600160a01b037f9e7b61f58c47dc699ac88507c4f5bb9f121c03808c5676a8078fe583e46497005416803b1561013c57604051630f8e573b60e21b815260048101839052336024820152905f908290604490829084905af18015610283576117c6575090565b5f6117d0916115e6565b90565b90506020813d6020116117fd575b816117ee602093836115e6565b8101031261013c57515f61175d565b3d91506117e1565b809150156118ab577f9e7b61f58c47dc699ac88507c4f5bb9f121c03808c5676a8078fe583e4649700546040516382027b6d60e01b81526004810183905233602482015290602090829060449082906001600160a01b03165afa908115610283575f9161188c575b50156118765790565b630276b5d960e01b5f526004523360245260445ffd5b6118a5915060203d60201161027c5761026f81836115e6565b5f61186d565b506117d0611ed6565b80156118c5575b6117d03082611e59565b506118ce611ed6565b6118bb565b9081156118e5575b6117d09082611e59565b90506117d06118f2611ed6565b9190506118db565b919082156119b7575b80156119a9575b8115611993575b6064602092935f6001600160a01b035f516020611f745f395f51905f5254166040519687958694637702dcff60e01b86526004860152602485015260448401525af1908115610283575f91611964575090565b90506020813d60201161198b575b8161197f602093836115e6565b8101031261013c575190565b3d9150611972565b6020915060646119a1611ed6565b925050611911565b506119b2611ed6565b61190a565b5f516020611f745f395f51905f5254604051639cd07acb60e01b81525f60048201529193506001600160a01b0316816044815f6020948160248401525af1908115610283575f91611a0a575b5091611903565b90506020813d602011611a34575b81611a25602093836115e6565b8101031261013c57515f611a03565b3d9150611a18565b90611b0b926001600160a01b03831690815f52600760205260405f206001600160a01b0384165f5260205260405f205415155f14611b0e57611a9d90825f52600760205260405f206001600160a01b0385165f5260205260405f2054611bb8565b815f52600760205260405f206001600160a01b0384165f5260205260405f20555b805f52600760205260405f206001600160a01b0383165f52602052611ae660405f20546118b4565b505f5260076020526001600160a01b0360405f2091165f5260205260405f20546118d3565b50565b815f52600760205260405f206001600160a01b0384165f5260205260405f2055611abe565b908115611ba8575b8015611b96575b60209060646001600160a01b035f516020611f745f395f51905f525416935f60405195869485936303056db360e31b8552600485015260248401528160448401525af1908115610283575f91611964575090565b506020611ba1611ed6565b9050611b42565b9050611bb2611ed6565b90611b3b565b908115611c2d575b8015611c1b575b60209060646001600160a01b035f516020611f745f395f51905f525416935f604051958694859363022f65e760e31b8552600485015260248401528160448401525af1908115610283575f91611964575090565b506020611c26611ed6565b9050611bc7565b9050611c37611ed6565b90611bc0565b908115611cb2575b8015611ca0575b60209060646001600160a01b035f516020611f745f395f51905f525416935f6040519586948593631d44e90160e21b8552600485015260248401528160448401525af1908115610283575f91611964575090565b506020611cab611ed6565b9050611c4c565b9050611cbc611ed6565b90611c45565b906001600160a01b038216805f52600860205260405f206001600160a01b0383165f5260205260405f205415611e2457611d4c611b0b94620151804204835f52600a60205260405f206001600160a01b0386165f526020528060405f205403611d9e575b50825f52600960205260405f206001600160a01b0385165f5260205260405f2054611bb8565b5f8281526009602090815260408083206001600160a01b03871684529091529020819055611d79906118b4565b505f5260096020526001600160a01b0360405f2091165f5260205260405f20546118d3565b835f52600a60205260405f206001600160a01b0386165f5260205260405f2055611dc6611ed6565b5f8481526009602090815260408083206001600160a01b03891684529091529020819055611df3906118b4565b50825f52600960205260405f206001600160a01b0385165f52602052611e1d8560405f20546118d3565b505f611d26565b50505050565b46600103611e3757600190565b4662aa36a703611e475761271190565b617a694614611e54575f90565b5f1990565b6001600160a01b037f9e7b61f58c47dc699ac88507c4f5bb9f121c03808c5676a8078fe583e4649700541691823b1561013c57604051635ca4b5b160e11b815260048101929092526001600160a01b03166024820152905f908290604490829084905af1801561028357611eca5750565b5f611ed4916115e6565b565b5f516020611f745f395f51905f5254604051639cd07acb60e01b81525f6004820152906001600160a01b0316816044815f602094600560248401525af1908115610283575f91611964575090565b5f516020611f745f395f51905f5254604051639cd07acb60e01b815260048101929092526001600160a01b0316816044815f602094600560248401525af1908115610283575f9161196457509056fe9e7b61f58c47dc699ac88507c4f5bb9f121c03808c5676a8078fe583e4649701a164736f6c634300081b000a",
  "devdoc": {
    "kind": "dev",
    "methods": {},
    "title": "SealedFX",
    "version": 1
  },
  "userdoc": {
    "errors": {
      "SenderNotAllowedToUseHandle(bytes32,address)": [
        {
          "notice": "Returned if the sender is not allowed to use the handle."
        }
      ],
      "ZamaProtocolUnsupported()": [
        {
          "notice": "Returned if the Zama protocol is not supported on the current chain"
        }
      ]
    },
    "kind": "user",
    "methods": {
      "cancelOrder(uint256)": {
        "notice": "Cancel an open order. Returns locked amount to escrow."
      },
      "createOrder(address,address,bytes32,bytes32,bytes,uint256)": {
        "notice": "Submit a sealed FX order. Locks the encrypted amount in escrow."
      },
      "deposit(address,uint64)": {
        "notice": "Deposit ERC-20 tokens into encrypted escrow.         The deposit amount is public (ERC-20 transfer), but your         escrow balance is encrypted from this point on."
      },
      "escrowBalance(address)": {
        "notice": "Get your encrypted escrow balance. Only you can decrypt."
      },
      "getDailyLimit(address)": {
        "notice": "Get your encrypted daily limit. Only you can decrypt."
      },
      "getDailySpent(address)": {
        "notice": "Get your encrypted daily spend. Only you can decrypt."
      },
      "matchOrders(uint256,uint256)": {
        "notice": "Match two compatible orders using FHE.         Order A: sells tokenX for tokenY at rateA         Order B: sells tokenY for tokenX at rateB         Compatible if rateA * rateB >= RATE_SCALE^2 / 1e6         Settlement: min(amountA, amountB) transferred each way."
      },
      "setDailyLimit(address,bytes32,bytes)": {
        "notice": "Set an encrypted daily spending limit for a token."
      },
      "withdraw(address,uint64)": {
        "notice": "Withdraw tokens from escrow.         Deducts from encrypted balance. If insufficient, the deduction         is a no-op (FHE select). Check your balance after."
      }
    },
    "notice": "Sealed-bid cross-border FX matching via FHE.         Users deposit ERC-20 tokens which are held as encrypted internal         balances. Orders, matching, and settlement all operate on encrypted         values — the blockchain never sees the amounts.",
    "version": 1
  },
  "storageLayout": {
    "storage": [
      {
        "astId": 42630,
        "contract": "contracts/SealedFX.sol:SealedFX",
        "label": "nextOrderId",
        "offset": 0,
        "slot": "0",
        "type": "t_uint256"
      },
      {
        "astId": 42632,
        "contract": "contracts/SealedFX.sol:SealedFX",
        "label": "nextSettlementId",
        "offset": 0,
        "slot": "1",
        "type": "t_uint256"
      },
      {
        "astId": 42634,
        "contract": "contracts/SealedFX.sol:SealedFX",
        "label": "admin",
        "offset": 0,
        "slot": "2",
        "type": "t_address"
      },
      {
        "astId": 42639,
        "contract": "contracts/SealedFX.sol:SealedFX",
        "label": "_orders",
        "offset": 0,
        "slot": "3",
        "type": "t_mapping(t_uint256,t_struct(Order)42615_storage)"
      },
      {
        "astId": 42644,
        "contract": "contracts/SealedFX.sol:SealedFX",
        "label": "_settlements",
        "offset": 0,
        "slot": "4",
        "type": "t_mapping(t_uint256,t_struct(Settlement)42628_storage)"
      },
      {
        "astId": 42649,
        "contract": "contracts/SealedFX.sol:SealedFX",
        "label": "_userOrders",
        "offset": 0,
        "slot": "5",
        "type": "t_mapping(t_address,t_array(t_uint256)dyn_storage)"
      },
      {
        "astId": 42654,
        "contract": "contracts/SealedFX.sol:SealedFX",
        "label": "_userSettlements",
        "offset": 0,
        "slot": "6",
        "type": "t_mapping(t_address,t_array(t_uint256)dyn_storage)"
      },
      {
        "astId": 42661,
        "contract": "contracts/SealedFX.sol:SealedFX",
        "label": "_escrow",
        "offset": 0,
        "slot": "7",
        "type": "t_mapping(t_address,t_mapping(t_address,t_userDefinedValueType(euint64)44156))"
      },
      {
        "astId": 42668,
        "contract": "contracts/SealedFX.sol:SealedFX",
        "label": "_dailyLimit",
        "offset": 0,
        "slot": "8",
        "type": "t_mapping(t_address,t_mapping(t_address,t_userDefinedValueType(euint64)44156))"
      },
      {
        "astId": 42675,
        "contract": "contracts/SealedFX.sol:SealedFX",
        "label": "_dailySpent",
        "offset": 0,
        "slot": "9",
        "type": "t_mapping(t_address,t_mapping(t_address,t_userDefinedValueType(euint64)44156))"
      },
      {
        "astId": 42681,
        "contract": "contracts/SealedFX.sol:SealedFX",
        "label": "_lastSpendDay",
        "offset": 0,
        "slot": "10",
        "type": "t_mapping(t_address,t_mapping(t_address,t_uint256))"
      },
      {
        "astId": 42687,
        "contract": "contracts/SealedFX.sol:SealedFX",
        "label": "supportedPairs",
        "offset": 0,
        "slot": "11",
        "type": "t_mapping(t_address,t_mapping(t_address,t_bool))"
      }
    ],
    "types": {
      "t_address": {
        "encoding": "inplace",
        "label": "address",
        "numberOfBytes": "20"
      },
      "t_array(t_uint256)dyn_storage": {
        "base": "t_uint256",
        "encoding": "dynamic_array",
        "label": "uint256[]",
        "numberOfBytes": "32"
      },
      "t_bool": {
        "encoding": "inplace",
        "label": "bool",
        "numberOfBytes": "1"
      },
      "t_enum(OrderStatus)42595": {
        "encoding": "inplace",
        "label": "enum SealedFX.OrderStatus",
        "numberOfBytes": "1"
      },
      "t_mapping(t_address,t_array(t_uint256)dyn_storage)": {
        "encoding": "mapping",
        "key": "t_address",
        "label": "mapping(address => uint256[])",
        "numberOfBytes": "32",
        "value": "t_array(t_uint256)dyn_storage"
      },
      "t_mapping(t_address,t_bool)": {
        "encoding": "mapping",
        "key": "t_address",
        "label": "mapping(address => bool)",
        "numberOfBytes": "32",
        "value": "t_bool"
      },
      "t_mapping(t_address,t_mapping(t_address,t_bool))": {
        "encoding": "mapping",
        "key": "t_address",
        "label": "mapping(address => mapping(address => bool))",
        "numberOfBytes": "32",
        "value": "t_mapping(t_address,t_bool)"
      },
      "t_mapping(t_address,t_mapping(t_address,t_uint256))": {
        "encoding": "mapping",
        "key": "t_address",
        "label": "mapping(address => mapping(address => uint256))",
        "numberOfBytes": "32",
        "value": "t_mapping(t_address,t_uint256)"
      },
      "t_mapping(t_address,t_mapping(t_address,t_userDefinedValueType(euint64)44156))": {
        "encoding": "mapping",
        "key": "t_address",
        "label": "mapping(address => mapping(address => euint64))",
        "numberOfBytes": "32",
        "value": "t_mapping(t_address,t_userDefinedValueType(euint64)44156)"
      },
      "t_mapping(t_address,t_uint256)": {
        "encoding": "mapping",
        "key": "t_address",
        "label": "mapping(address => uint256)",
        "numberOfBytes": "32",
        "value": "t_uint256"
      },
      "t_mapping(t_address,t_userDefinedValueType(euint64)44156)": {
        "encoding": "mapping",
        "key": "t_address",
        "label": "mapping(address => euint64)",
        "numberOfBytes": "32",
        "value": "t_userDefinedValueType(euint64)44156"
      },
      "t_mapping(t_uint256,t_struct(Order)42615_storage)": {
        "encoding": "mapping",
        "key": "t_uint256",
        "label": "mapping(uint256 => struct SealedFX.Order)",
        "numberOfBytes": "32",
        "value": "t_struct(Order)42615_storage"
      },
      "t_mapping(t_uint256,t_struct(Settlement)42628_storage)": {
        "encoding": "mapping",
        "key": "t_uint256",
        "label": "mapping(uint256 => struct SealedFX.Settlement)",
        "numberOfBytes": "32",
        "value": "t_struct(Settlement)42628_storage"
      },
      "t_struct(Order)42615_storage": {
        "encoding": "inplace",
        "label": "struct SealedFX.Order",
        "members": [
          {
            "astId": 42597,
            "contract": "contracts/SealedFX.sol:SealedFX",
            "label": "maker",
            "offset": 0,
            "slot": "0",
            "type": "t_address"
          },
          {
            "astId": 42599,
            "contract": "contracts/SealedFX.sol:SealedFX",
            "label": "tokenIn",
            "offset": 0,
            "slot": "1",
            "type": "t_address"
          },
          {
            "astId": 42601,
            "contract": "contracts/SealedFX.sol:SealedFX",
            "label": "tokenOut",
            "offset": 0,
            "slot": "2",
            "type": "t_address"
          },
          {
            "astId": 42604,
            "contract": "contracts/SealedFX.sol:SealedFX",
            "label": "amount",
            "offset": 0,
            "slot": "3",
            "type": "t_userDefinedValueType(euint64)44156"
          },
          {
            "astId": 42607,
            "contract": "contracts/SealedFX.sol:SealedFX",
            "label": "rateScaled",
            "offset": 0,
            "slot": "4",
            "type": "t_userDefinedValueType(euint64)44156"
          },
          {
            "astId": 42609,
            "contract": "contracts/SealedFX.sol:SealedFX",
            "label": "createdAt",
            "offset": 0,
            "slot": "5",
            "type": "t_uint256"
          },
          {
            "astId": 42611,
            "contract": "contracts/SealedFX.sol:SealedFX",
            "label": "expiresAt",
            "offset": 0,
            "slot": "6",
            "type": "t_uint256"
          },
          {
            "astId": 42614,
            "contract": "contracts/SealedFX.sol:SealedFX",
            "label": "status",
            "offset": 0,
            "slot": "7",
            "type": "t_enum(OrderStatus)42595"
          }
        ],
        "numberOfBytes": "256"
      },
      "t_struct(Settlement)42628_storage": {
        "encoding": "inplace",
        "label": "struct SealedFX.Settlement",
        "members": [
          {
            "astId": 42617,
            "contract": "contracts/SealedFX.sol:SealedFX",
            "label": "buyOrderId",
            "offset": 0,
            "slot": "0",
            "type": "t_uint256"
          },
          {
            "astId": 42619,
            "contract": "contracts/SealedFX.sol:SealedFX",
            "label": "sellOrderId",
            "offset": 0,
            "slot": "1",
            "type": "t_uint256"
          },
          {
            "astId": 42622,
            "contract": "contracts/SealedFX.sol:SealedFX",
            "label": "amountInSettled",
            "offset": 0,
            "slot": "2",
            "type": "t_userDefinedValueType(euint64)44156"
          },
          {
            "astId": 42625,
            "contract": "contracts/SealedFX.sol:SealedFX",
            "label": "amountOutSettled",
            "offset": 0,
            "slot": "3",
            "type": "t_userDefinedValueType(euint64)44156"
          },
          {
            "astId": 42627,
            "contract": "contracts/SealedFX.sol:SealedFX",
            "label": "settledAt",
            "offset": 0,
            "slot": "4",
            "type": "t_uint256"
          }
        ],
        "numberOfBytes": "160"
      },
      "t_uint256": {
        "encoding": "inplace",
        "label": "uint256",
        "numberOfBytes": "32"
      },
      "t_userDefinedValueType(euint64)44156": {
        "encoding": "inplace",
        "label": "euint64",
        "numberOfBytes": "32"
      }
    }
  }
}